:0300000002004EAD
:200008000000E2FBEAF2802C0000E0FBEAF08024E6B50202EBF62200E2B50202EBF22200DE
:20002800E0B50202EBF02230F6E0A88220F5D3EAC6F582228B822230F6E6A88220F5D980EE
:01004800CFE8
:0300A7000200490B
:050049001200C080FE62
:2000AA00758933C28CC28E758A06758C9CC28DC28FD28CD28E22C290C2911200AA308D0B1C
:1B00CA00C28C758A06C28DB290D28C308FEFC28E758C9CC28FB291D28E80E2E8
:06007D00E478FFF6D8FD57
:20005B007900E94400601B7A009000E9780175A000E493F2A308B8000205A0D9F4DAF27562
:02007B00A0FFE4
:200083007800E84400600A790175A000E4F309D8FC7800E84400600C7900900001E4F0A37B
:0400A300D8FCD9FAB2
:0D004E007581071200E5E58260030200499C
:0400E50075820022FE
:00000001FF
