:0300000002004EAD
:200008000000E2FBEAF2802C0000E0FBEAF08024E6B50202EBF62200E2B50202EBF22200DE
:20002800E0B50202EBF02230F6E0A88220F5D3EAC6F582228B822230F6E6A88220F5D980EE
:01004800CFE8
:0300A7000200490B
:050049001200AA80FE78
:2000AA00750800D2B0D2B1E508FF600ABF0102801CBF02F3802ED290D29120B10830B0051B
:2000CA0075080280E230B0DF75080180DAC290D29120B10830B00575080280CB20B1C87553
:1300EA00080080C3D290C29120B10320B0B975080080B4F5
:06007D00E478FFF6D8FD57
:20005B007900E94400601B7A00900101780175A000E493F2A308B8000205A0D9F4DAF27549
:02007B00A0FFE4
:200083007800E84400600A790175A000E4F309D8FC7800E84400600C7900900001E4F0A37B
:0400A300D8FCD9FAB2
:0D004E007581081200FDE582600302004983
:0400FD0075820022E6
:00000001FF
