:0300000002004EAD
:100008000000E2FBEAF2802C0000E0FBEAF080242A
:10001800E6B50202EBF62200E2B50202EBF222009C
:10002800E0B50202EBF02230F6E0A88220F5D3EA30
:10003800C6F582228B822230F6E6A88220F5D98086
:01004800CFE8
:0300A7000200490B
:050049001200EB80FE37
:1000AA00AE82AF83E4F508F509C3E5089EE5099F2A
:1000BA00502EE4F50AF50BC3E50A9478E50B940093
:1000CA00500FAC0AAD0B74012CF50AE43DF50B8018
:1000DA00E6AC08AD0974012CF508E43DF50980C9C0
:1000EA0022D2B2D29020B2FD9000141200AA20B2FD
:0800FA00F4B29030B2FD80ED7C
:06007D00E478FFF6D8FD57
:10005B007900E94400601B7A00900106780175A0D5
:10006B0000E493F2A308B8000205A0D9F4DAF27504
:02007B00A0FFE4
:100083007800E84400600A790175A000E4F309D818
:10009300FC7800E84400600C7900900001E4F0A3D0
:0400A300D8FCD9FAB2
:0D004E0075810B120102E58260030200497A
:0401020075820022E0
:00000001FF
