:0300000002004EAD
:100008000000E2FBEAF2802C0000E0FBEAF080242A
:10001800E6B50202EBF62200E2B50202EBF222009C
:10002800E0B50202EBF02230F6E0A88220F5D3EA30
:10003800C6F582228B822230F6E6A88220F5D98086
:01004800CFE8
:0300A7000200490B
:050049001200AA80FE78
:1000AA007E007F007D01D29175C80975CD0075CC9F
:1000BA0000C2CFC2CED2CA30CE2FC2CBACCB7B00CD
:1000CA00A9CA7A00E94203EA4204C2CED2CBED6061
:1000DA00088B068C077D008010EBC39EFBEC9FF516
:0E00EA00B08BA0C2CBC2CA80FE10CFCB80C9A3
:06007D00E478FFF6D8FD57
:10005B007900E94400601B7A009000FC780175A0E0
:10006B0000E493F2A308B8000205A0D9F4DAF27504
:02007B00A0FFE4
:100083007800E84400600A790175A000E4F309D818
:10009300FC7800E84400600C7900900001E4F0A3D0
:0400A300D8FCD9FAB2
:0D004E007581071200F8E582600302004989
:0400F80075820022EB
:00000001FF
