:0300000002004EAD
:200008000000E2FBEAF2802C0000E0FBEAF08024E6B50202EBF62200E2B50202EBF22200DE
:20002800E0B50202EBF02230F6E0A88220F5D3EAC6F582228B822230F6E6A88220F5D980EE
:01004800CFE8
:0300A7000200490B
:050049001200F280FE30
:2000AA00C28C5389F0438902758C06758A06C28D22108D0280FB22AE82AF83C28C758A06E0
:2000CA00C28DD28C8E048F051EBEFF011FEC4D6016C007C0061200BB1200BB1200BB120093
:1700EA00BBD006D00780DD22D2901200AAB2909001F41200C180F6EA
:06007D00E478FFF6D8FD57
:20005B007900E94400601B7A00900105780175A000E493F2A308B8000205A0D9F4DAF27545
:02007B00A0FFE4
:200083007800E84400600A790175A000E4F309D8FC7800E84400600C7900900001E4F0A37B
:0400A300D8FCD9FAB2
:0D004E00758107120101E58260030200497F
:0401010075820022E1
:00000001FF
