:0300000002004EAD
:100008000000E2FBEAF2802C0000E0FBEAF080242A
:10001800E6B50202EBF62200E2B50202EBF222009C
:10002800E0B50202EBF02230F6E0A88220F5D3EA30
:10003800C6F582228B822230F6E6A88220F5D98086
:01004800CFE8
:0300A7000200490B
:050049001200DB80FE47
:1000AA0075C80075CBFC75CA1875CDFC75CC18C21D
:1000BA00CFC2CA22AE82AF83C2CFD2CA8E048F0504
:1000CA001EBEFF011FEC4D600510CFF080FBC2CAB7
:0E00DA00221200AAB29090012C1200BE80F6F5
:06007D00E478FFF6D8FD57
:10005B007900E94400601B7A009000EC780175A0F0
:10006B0000E493F2A308B8000205A0D9F4DAF27504
:02007B00A0FFE4
:100083007800E84400600A790175A000E4F309D818
:10009300FC7800E84400600C7900900001E4F0A3D0
:0400A300D8FCD9FAB2
:0D004E007581071200E8E582600302004999
:0400E80075820022FB
:00000001FF
