:0300000002004EAD
:100008000000E2FBEAF2802C0000E0FBEAF080242A
:10001800E6B50202EBF62200E2B50202EBF222009C
:10002800E0B50202EBF02230F6E0A88220F5D3EA30
:10003800C6F582228B822230F6E6A88220F5D98086
:01004800CFE8
:0300A7000200490B
:050049001200E680FE3C
:1000AA005389F0438901C28DC28C22C28C758CFCA3
:1000BA00758A18D28C308DFDC28CC28D22AE82AF69
:1000CA00838E048F051EBEFF011FEC4D600DC00715
:1000DA00C0061200B5D006D00780E6221200AAB2E6
:0900EA00909000C81200C780F6D6
:06007D00E478FFF6D8FD57
:10005B007900E94400601B7A009000F7780175A0E5
:10006B0000E493F2A308B8000205A0D9F4DAF27504
:02007B00A0FFE4
:100083007800E84400600A790175A000E4F309D818
:10009300FC7800E84400600C7900900001E4F0A3D0
:0400A300D8FCD9FAB2
:0D004E007581071200F3E58260030200498E
:0400F30075820022F0
:00000001FF
